{
  "_format": "hh-sol-artifact-1",
  "contractName": "NodesRegistry",
  "sourceName": "contracts/NodesRegistry.sol",
  "abi": [
    {
      "anonymous": false,
      "inputs": [
        {
          "indexed": true,
          "internalType": "address",
          "name": "previousOwner",
          "type": "address"
        },
        {
          "indexed": true,
          "internalType": "address",
          "name": "newOwner",
          "type": "address"
        }
      ],
      "name": "OwnershipTransferred",
      "type": "event"
    },
    {
      "anonymous": false,
      "inputs": [
        {
          "indexed": false,
          "internalType": "string",
          "name": "_node_type",
          "type": "string"
        },
        {
          "indexed": false,
          "internalType": "string",
          "name": "_backbone_address",
          "type": "string"
        }
      ],
      "name": "Remove",
      "type": "event"
    },
    {
      "anonymous": false,
      "inputs": [
        {
          "indexed": false,
          "internalType": "string",
          "name": "_node_type",
          "type": "string"
        },
        {
          "indexed": false,
          "internalType": "string",
          "name": "_backbone_address",
          "type": "string"
        }
      ],
      "name": "Set",
      "type": "event"
    },
    {
      "inputs": [
        {
          "internalType": "string",
          "name": "node_type",
          "type": "string"
        }
      ],
      "name": "getNodes",
      "outputs": [
        {
          "internalType": "string[]",
          "name": "",
          "type": "string[]"
        }
      ],
      "stateMutability": "view",
      "type": "function"
    },
    {
      "inputs": [
        {
          "internalType": "string",
          "name": "node_type",
          "type": "string"
        }
      ],
      "name": "getNodesWithAddresses",
      "outputs": [
        {
          "internalType": "string[]",
          "name": "",
          "type": "string[]"
        }
      ],
      "stateMutability": "view",
      "type": "function"
    },
    {
      "inputs": [],
      "name": "owner",
      "outputs": [
        {
          "internalType": "address",
          "name": "",
          "type": "address"
        }
      ],
      "stateMutability": "view",
      "type": "function"
    },
    {
      "inputs": [
        {
          "internalType": "string",
          "name": "node_type",
          "type": "string"
        },
        {
          "internalType": "address",
          "name": "wallet_address",
          "type": "address"
        }
      ],
      "name": "remove",
      "outputs": [],
      "stateMutability": "nonpayable",
      "type": "function"
    },
    {
      "inputs": [],
      "name": "renounceOwnership",
      "outputs": [],
      "stateMutability": "nonpayable",
      "type": "function"
    },
    {
      "inputs": [
        {
          "internalType": "string",
          "name": "node_type",
          "type": "string"
        },
        {
          "internalType": "address",
          "name": "wallet_address",
          "type": "address"
        },
        {
          "internalType": "string",
          "name": "backbone_address",
          "type": "string"
        }
      ],
      "name": "set",
      "outputs": [],
      "stateMutability": "nonpayable",
      "type": "function"
    },
    {
      "inputs": [
        {
          "internalType": "address",
          "name": "newOwner",
          "type": "address"
        }
      ],
      "name": "transferOwnership",
      "outputs": [],
      "stateMutability": "nonpayable",
      "type": "function"
    }
  ],
  "bytecode": "0x60806040523480156200001157600080fd5b5062000032620000266200003860201b60201c565b6200004060201b60201c565b62000104565b600033905090565b60008060009054906101000a900473ffffffffffffffffffffffffffffffffffffffff169050816000806101000a81548173ffffffffffffffffffffffffffffffffffffffff021916908373ffffffffffffffffffffffffffffffffffffffff1602179055508173ffffffffffffffffffffffffffffffffffffffff168173ffffffffffffffffffffffffffffffffffffffff167f8be0079c531659141344cd1fd0a4f28419497f9722a3daafe3b4186f6b6457e060405160405180910390a35050565b6154f580620001146000396000f3fe608060405234801561001057600080fd5b506004361061007d5760003560e01c8063715018a61161005b578063715018a6146100ea5780638da5cb5b146100f45780639fb8657b14610112578063f2fde38b146101425761007d565b80631ff5020f1461008257806328bb21171461009e57806356836a41146100ba575b600080fd5b61009c600480360381019061009791906147ba565b61015e565b005b6100b860048036038101906100b39190614766565b61081f565b005b6100d460048036038101906100cf91906146e4565b61135b565b6040516100e19190614c87565b60405180910390f35b6100f2612a0b565b005b6100fc612a93565b6040516101099190614c6c565b60405180910390f35b61012c600480360381019061012791906146e4565b612abc565b6040516101399190614c87565b60405180910390f35b61015c60048036038101906101579190614692565b613f02565b005b610166613ffa565b73ffffffffffffffffffffffffffffffffffffffff16610184612a93565b73ffffffffffffffffffffffffffffffffffffffff16146101da576040517f08c379a00000000000000000000000000000000000000000000000000000000081526004016101d190614d9d565b60405180910390fd5b60006102716040518060400160405280600181526020017f31000000000000000000000000000000000000000000000000000000000000008152506040518060400160405280600181526020017f7c00000000000000000000000000000000000000000000000000000000000000815250846040518060200160405280600081525060405180602001604052806000815250614002565b90506040518060400160405280600681526020017f6163636573730000000000000000000000000000000000000000000000000000815250805190602001208480519060200120141561036457600173__$ce39e7eba0e8c210ce522c13d692fbaca1$__639e3e3102909185846040518463ffffffff1660e01b81526004016102fc93929190614e6b565b60006040518083038186803b15801561031457600080fd5b505af4158015610328573d6000803e3d6000fd5b505050507fddc5a395ff29c22c0e109c1b1e032440d25c3f9452ffe7327b9dbb2f30fa632a8160405161035b9190614d33565b60405180910390a15b6040518060400160405280600881526020017f616e616c797a6572000000000000000000000000000000000000000000000000815250805190602001208480519060200120141561045557600573__$ce39e7eba0e8c210ce522c13d692fbaca1$__639e3e3102909185846040518463ffffffff1660e01b81526004016103ed93929190614e6b565b60006040518083038186803b15801561040557600080fd5b505af4158015610419573d6000803e3d6000fd5b505050507fddc5a395ff29c22c0e109c1b1e032440d25c3f9452ffe7327b9dbb2f30fa632a8160405161044c9190614cfe565b60405180910390a15b6040518060400160405280600881526020017f677561726469616e000000000000000000000000000000000000000000000000815250805190602001208480519060200120141561054657600973__$ce39e7eba0e8c210ce522c13d692fbaca1$__639e3e3102909185846040518463ffffffff1660e01b81526004016104de93929190614e6b565b60006040518083038186803b1580156104f657600080fd5b505af415801561050a573d6000803e3d6000fd5b505050507fddc5a395ff29c22c0e109c1b1e032440d25c3f9452ffe7327b9dbb2f30fa632a8160405161053d9190614d68565b60405180910390a15b6040518060400160405280600981526020017f7265706c6963616e740000000000000000000000000000000000000000000000815250805190602001208480519060200120141561063757600d73__$ce39e7eba0e8c210ce522c13d692fbaca1$__639e3e3102909185846040518463ffffffff1660e01b81526004016105cf93929190614e6b565b60006040518083038186803b1580156105e757600080fd5b505af41580156105fb573d6000803e3d6000fd5b505050507fddc5a395ff29c22c0e109c1b1e032440d25c3f9452ffe7327b9dbb2f30fa632a8160405161062e9190614df2565b60405180910390a15b6040518060400160405280600681526020017f7772697465720000000000000000000000000000000000000000000000000000815250805190602001208480519060200120141561072857601173__$ce39e7eba0e8c210ce522c13d692fbaca1$__639e3e3102909185846040518463ffffffff1660e01b81526004016106c093929190614e6b565b60006040518083038186803b1580156106d857600080fd5b505af41580156106ec573d6000803e3d6000fd5b505050507fddc5a395ff29c22c0e109c1b1e032440d25c3f9452ffe7327b9dbb2f30fa632a8160405161071f9190614cc9565b60405180910390a15b6040518060400160405280600a81526020017f7772697465717565756500000000000000000000000000000000000000000000815250805190602001208480519060200120141561081957601573__$ce39e7eba0e8c210ce522c13d692fbaca1$__639e3e3102909185846040518463ffffffff1660e01b81526004016107b193929190614e6b565b60006040518083038186803b1580156107c957600080fd5b505af41580156107dd573d6000803e3d6000fd5b505050507fddc5a395ff29c22c0e109c1b1e032440d25c3f9452ffe7327b9dbb2f30fa632a816040516108109190614dbd565b60405180910390a15b50505050565b610827613ffa565b73ffffffffffffffffffffffffffffffffffffffff16610845612a93565b73ffffffffffffffffffffffffffffffffffffffff161461089b576040517f08c379a000000000000000000000000000000000000000000000000000000000815260040161089290614d9d565b60405180910390fd5b6040518060400160405280600681526020017f61636365737300000000000000000000000000000000000000000000000000008152508051906020012082805190602001201415610a65576000600173__$ce39e7eba0e8c210ce522c13d692fbaca1$__63732a2ccf9091846040518363ffffffff1660e01b8152600401610924929190614e42565b60006040518083038186803b15801561093c57600080fd5b505af4158015610950573d6000803e3d6000fd5b505050506040513d6000823e3d601f19601f820116820180604052508101906109799190614725565b90506109bc8160006040518060400160405280600181526020017f3000000000000000000000000000000000000000000000000000000000000000815250614037565b9050600173__$ce39e7eba0e8c210ce522c13d692fbaca1$__639e3e3102909184846040518463ffffffff1660e01b81526004016109fc93929190614e6b565b60006040518083038186803b158015610a1457600080fd5b505af4158015610a28573d6000803e3d6000fd5b505050507f587596d07973870738b95b9ca11fca125915b9a5f2086c456be4e537f245d52281604051610a5b9190614d33565b60405180910390a1505b6040518060400160405280600881526020017f616e616c797a65720000000000000000000000000000000000000000000000008152508051906020012082805190602001201415610c2f576000600573__$ce39e7eba0e8c210ce522c13d692fbaca1$__63732a2ccf9091846040518363ffffffff1660e01b8152600401610aee929190614e42565b60006040518083038186803b158015610b0657600080fd5b505af4158015610b1a573d6000803e3d6000fd5b505050506040513d6000823e3d601f19601f82011682018060405250810190610b439190614725565b9050610b868160006040518060400160405280600181526020017f3000000000000000000000000000000000000000000000000000000000000000815250614037565b9050600573__$ce39e7eba0e8c210ce522c13d692fbaca1$__639e3e3102909184846040518463ffffffff1660e01b8152600401610bc693929190614e6b565b60006040518083038186803b158015610bde57600080fd5b505af4158015610bf2573d6000803e3d6000fd5b505050507f587596d07973870738b95b9ca11fca125915b9a5f2086c456be4e537f245d52281604051610c259190614cfe565b60405180910390a1505b6040518060400160405280600881526020017f677561726469616e0000000000000000000000000000000000000000000000008152508051906020012082805190602001201415610df9576000600973__$ce39e7eba0e8c210ce522c13d692fbaca1$__63732a2ccf9091846040518363ffffffff1660e01b8152600401610cb8929190614e42565b60006040518083038186803b158015610cd057600080fd5b505af4158015610ce4573d6000803e3d6000fd5b505050506040513d6000823e3d601f19601f82011682018060405250810190610d0d9190614725565b9050610d508160006040518060400160405280600181526020017f3000000000000000000000000000000000000000000000000000000000000000815250614037565b9050600973__$ce39e7eba0e8c210ce522c13d692fbaca1$__639e3e3102909184846040518463ffffffff1660e01b8152600401610d9093929190614e6b565b60006040518083038186803b158015610da857600080fd5b505af4158015610dbc573d6000803e3d6000fd5b505050507f587596d07973870738b95b9ca11fca125915b9a5f2086c456be4e537f245d52281604051610def9190614d68565b60405180910390a1505b6040518060400160405280600981526020017f7265706c6963616e7400000000000000000000000000000000000000000000008152508051906020012082805190602001201415610fc3576000600d73__$ce39e7eba0e8c210ce522c13d692fbaca1$__63732a2ccf9091846040518363ffffffff1660e01b8152600401610e82929190614e42565b60006040518083038186803b158015610e9a57600080fd5b505af4158015610eae573d6000803e3d6000fd5b505050506040513d6000823e3d601f19601f82011682018060405250810190610ed79190614725565b9050610f1a8160006040518060400160405280600181526020017f3000000000000000000000000000000000000000000000000000000000000000815250614037565b9050600d73__$ce39e7eba0e8c210ce522c13d692fbaca1$__639e3e3102909184846040518463ffffffff1660e01b8152600401610f5a93929190614e6b565b60006040518083038186803b158015610f7257600080fd5b505af4158015610f86573d6000803e3d6000fd5b505050507f587596d07973870738b95b9ca11fca125915b9a5f2086c456be4e537f245d52281604051610fb99190614df2565b60405180910390a1505b6040518060400160405280600681526020017f7772697465720000000000000000000000000000000000000000000000000000815250805190602001208280519060200120141561118d576000601173__$ce39e7eba0e8c210ce522c13d692fbaca1$__63732a2ccf9091846040518363ffffffff1660e01b815260040161104c929190614e42565b60006040518083038186803b15801561106457600080fd5b505af4158015611078573d6000803e3d6000fd5b505050506040513d6000823e3d601f19601f820116820180604052508101906110a19190614725565b90506110e48160006040518060400160405280600181526020017f3000000000000000000000000000000000000000000000000000000000000000815250614037565b9050601173__$ce39e7eba0e8c210ce522c13d692fbaca1$__639e3e3102909184846040518463ffffffff1660e01b815260040161112493929190614e6b565b60006040518083038186803b15801561113c57600080fd5b505af4158015611150573d6000803e3d6000fd5b505050507f587596d07973870738b95b9ca11fca125915b9a5f2086c456be4e537f245d522816040516111839190614cc9565b60405180910390a1505b6040518060400160405280600a81526020017f77726974657175657565000000000000000000000000000000000000000000008152508051906020012082805190602001201415611357576000601573__$ce39e7eba0e8c210ce522c13d692fbaca1$__63732a2ccf9091846040518363ffffffff1660e01b8152600401611216929190614e42565b60006040518083038186803b15801561122e57600080fd5b505af4158015611242573d6000803e3d6000fd5b505050506040513d6000823e3d601f19601f8201168201806040525081019061126b9190614725565b90506112ae8160006040518060400160405280600181526020017f3000000000000000000000000000000000000000000000000000000000000000815250614037565b9050601573__$ce39e7eba0e8c210ce522c13d692fbaca1$__639e3e3102909184846040518463ffffffff1660e01b81526004016112ee93929190614e6b565b60006040518083038186803b15801561130657600080fd5b505af415801561131a573d6000803e3d6000fd5b505050507f587596d07973870738b95b9ca11fca125915b9a5f2086c456be4e537f245d5228160405161134d9190614dbd565b60405180910390a1505b5050565b6060806040518060400160405280600681526020017f6163636573730000000000000000000000000000000000000000000000000000815250805190602001208380519060200120141561172457600173__$ce39e7eba0e8c210ce522c13d692fbaca1$__63deb3d89690916040518263ffffffff1660e01b81526004016113e39190614e27565b60206040518083038186803b1580156113fb57600080fd5b505af415801561140f573d6000803e3d6000fd5b505050506040513d601f19601f820116820180604052508101906114339190614839565b67ffffffffffffffff811115611472577f4e487b7100000000000000000000000000000000000000000000000000000000600052604160045260246000fd5b6040519080825280602002602001820160405280156114a557816020015b60608152602001906001900390816114905790505b50905060005b600173__$ce39e7eba0e8c210ce522c13d692fbaca1$__63deb3d89690916040518263ffffffff1660e01b81526004016114e59190614e27565b60206040518083038186803b1580156114fd57600080fd5b505af4158015611511573d6000803e3d6000fd5b505050506040513d601f19601f820116820180604052508101906115359190614839565b811015611722576000600173__$ce39e7eba0e8c210ce522c13d692fbaca1$__63d1aa9e7e9091846040518363ffffffff1660e01b815260040161157a929190614ea9565b60206040518083038186803b15801561159257600080fd5b505af41580156115a6573d6000803e3d6000fd5b505050506040513d601f19601f820116820180604052508101906115ca91906146bb565b90506000600173__$ce39e7eba0e8c210ce522c13d692fbaca1$__63732a2ccf9091846040518363ffffffff1660e01b815260040161160a929190614e42565b60006040518083038186803b15801561162257600080fd5b505af4158015611636573d6000803e3d6000fd5b505050506040513d6000823e3d601f19601f8201168201806040525081019061165f9190614725565b90506116c961166d83614244565b6040518060400160405280600181526020017f7c00000000000000000000000000000000000000000000000000000000000000815250836040518060200160405280600081525060405180602001604052806000815250614002565b848481518110611702577f4e487b7100000000000000000000000000000000000000000000000000000000600052603260045260246000fd5b60200260200101819052505050808061171a9061539d565b9150506114ab565b505b6040518060400160405280600881526020017f616e616c797a65720000000000000000000000000000000000000000000000008152508051906020012083805190602001201415611aea57600573__$ce39e7eba0e8c210ce522c13d692fbaca1$__63deb3d89690916040518263ffffffff1660e01b81526004016117a99190614e27565b60206040518083038186803b1580156117c157600080fd5b505af41580156117d5573d6000803e3d6000fd5b505050506040513d601f19601f820116820180604052508101906117f99190614839565b67ffffffffffffffff811115611838577f4e487b7100000000000000000000000000000000000000000000000000000000600052604160045260246000fd5b60405190808252806020026020018201604052801561186b57816020015b60608152602001906001900390816118565790505b50905060005b600573__$ce39e7eba0e8c210ce522c13d692fbaca1$__63deb3d89690916040518263ffffffff1660e01b81526004016118ab9190614e27565b60206040518083038186803b1580156118c357600080fd5b505af41580156118d7573d6000803e3d6000fd5b505050506040513d601f19601f820116820180604052508101906118fb9190614839565b811015611ae8576000600573__$ce39e7eba0e8c210ce522c13d692fbaca1$__63d1aa9e7e9091846040518363ffffffff1660e01b8152600401611940929190614ea9565b60206040518083038186803b15801561195857600080fd5b505af415801561196c573d6000803e3d6000fd5b505050506040513d601f19601f8201168201806040525081019061199091906146bb565b90506000600573__$ce39e7eba0e8c210ce522c13d692fbaca1$__63732a2ccf9091846040518363ffffffff1660e01b81526004016119d0929190614e42565b60006040518083038186803b1580156119e857600080fd5b505af41580156119fc573d6000803e3d6000fd5b505050506040513d6000823e3d601f19601f82011682018060405250810190611a259190614725565b9050611a8f611a3383614244565b6040518060400160405280600181526020017f7c00000000000000000000000000000000000000000000000000000000000000815250836040518060200160405280600081525060405180602001604052806000815250614002565b848481518110611ac8577f4e487b7100000000000000000000000000000000000000000000000000000000600052603260045260246000fd5b602002602001018190525050508080611ae09061539d565b915050611871565b505b6040518060400160405280600881526020017f677561726469616e0000000000000000000000000000000000000000000000008152508051906020012083805190602001201415611eb057600973__$ce39e7eba0e8c210ce522c13d692fbaca1$__63deb3d89690916040518263ffffffff1660e01b8152600401611b6f9190614e27565b60206040518083038186803b158015611b8757600080fd5b505af4158015611b9b573d6000803e3d6000fd5b505050506040513d601f19601f82011682018060405250810190611bbf9190614839565b67ffffffffffffffff811115611bfe577f4e487b7100000000000000000000000000000000000000000000000000000000600052604160045260246000fd5b604051908082528060200260200182016040528015611c3157816020015b6060815260200190600190039081611c1c5790505b50905060005b600973__$ce39e7eba0e8c210ce522c13d692fbaca1$__63deb3d89690916040518263ffffffff1660e01b8152600401611c719190614e27565b60206040518083038186803b158015611c8957600080fd5b505af4158015611c9d573d6000803e3d6000fd5b505050506040513d601f19601f82011682018060405250810190611cc19190614839565b811015611eae576000600973__$ce39e7eba0e8c210ce522c13d692fbaca1$__63d1aa9e7e9091846040518363ffffffff1660e01b8152600401611d06929190614ea9565b60206040518083038186803b158015611d1e57600080fd5b505af4158015611d32573d6000803e3d6000fd5b505050506040513d601f19601f82011682018060405250810190611d5691906146bb565b90506000600973__$ce39e7eba0e8c210ce522c13d692fbaca1$__63732a2ccf9091846040518363ffffffff1660e01b8152600401611d96929190614e42565b60006040518083038186803b158015611dae57600080fd5b505af4158015611dc2573d6000803e3d6000fd5b505050506040513d6000823e3d601f19601f82011682018060405250810190611deb9190614725565b9050611e55611df983614244565b6040518060400160405280600181526020017f7c00000000000000000000000000000000000000000000000000000000000000815250836040518060200160405280600081525060405180602001604052806000815250614002565b848481518110611e8e577f4e487b7100000000000000000000000000000000000000000000000000000000600052603260045260246000fd5b602002602001018190525050508080611ea69061539d565b915050611c37565b505b6040518060400160405280600981526020017f7265706c6963616e740000000000000000000000000000000000000000000000815250805190602001208380519060200120141561227657600d73__$ce39e7eba0e8c210ce522c13d692fbaca1$__63deb3d89690916040518263ffffffff1660e01b8152600401611f359190614e27565b60206040518083038186803b158015611f4d57600080fd5b505af4158015611f61573d6000803e3d6000fd5b505050506040513d601f19601f82011682018060405250810190611f859190614839565b67ffffffffffffffff811115611fc4577f4e487b7100000000000000000000000000000000000000000000000000000000600052604160045260246000fd5b604051908082528060200260200182016040528015611ff757816020015b6060815260200190600190039081611fe25790505b50905060005b600d73__$ce39e7eba0e8c210ce522c13d692fbaca1$__63deb3d89690916040518263ffffffff1660e01b81526004016120379190614e27565b60206040518083038186803b15801561204f57600080fd5b505af4158015612063573d6000803e3d6000fd5b505050506040513d601f19601f820116820180604052508101906120879190614839565b811015612274576000600d73__$ce39e7eba0e8c210ce522c13d692fbaca1$__63d1aa9e7e9091846040518363ffffffff1660e01b81526004016120cc929190614ea9565b60206040518083038186803b1580156120e457600080fd5b505af41580156120f8573d6000803e3d6000fd5b505050506040513d601f19601f8201168201806040525081019061211c91906146bb565b90506000600d73__$ce39e7eba0e8c210ce522c13d692fbaca1$__63732a2ccf9091846040518363ffffffff1660e01b815260040161215c929190614e42565b60006040518083038186803b15801561217457600080fd5b505af4158015612188573d6000803e3d6000fd5b505050506040513d6000823e3d601f19601f820116820180604052508101906121b19190614725565b905061221b6121bf83614244565b6040518060400160405280600181526020017f7c00000000000000000000000000000000000000000000000000000000000000815250836040518060200160405280600081525060405180602001604052806000815250614002565b848481518110612254577f4e487b7100000000000000000000000000000000000000000000000000000000600052603260045260246000fd5b60200260200101819052505050808061226c9061539d565b915050611ffd565b505b6040518060400160405280600681526020017f7772697465720000000000000000000000000000000000000000000000000000815250805190602001208380519060200120141561263c57601173__$ce39e7eba0e8c210ce522c13d692fbaca1$__63deb3d89690916040518263ffffffff1660e01b81526004016122fb9190614e27565b60206040518083038186803b15801561231357600080fd5b505af4158015612327573d6000803e3d6000fd5b505050506040513d601f19601f8201168201806040525081019061234b9190614839565b67ffffffffffffffff81111561238a577f4e487b7100000000000000000000000000000000000000000000000000000000600052604160045260246000fd5b6040519080825280602002602001820160405280156123bd57816020015b60608152602001906001900390816123a85790505b50905060005b601173__$ce39e7eba0e8c210ce522c13d692fbaca1$__63deb3d89690916040518263ffffffff1660e01b81526004016123fd9190614e27565b60206040518083038186803b15801561241557600080fd5b505af4158015612429573d6000803e3d6000fd5b505050506040513d601f19601f8201168201806040525081019061244d9190614839565b81101561263a576000601173__$ce39e7eba0e8c210ce522c13d692fbaca1$__63d1aa9e7e9091846040518363ffffffff1660e01b8152600401612492929190614ea9565b60206040518083038186803b1580156124aa57600080fd5b505af41580156124be573d6000803e3d6000fd5b505050506040513d601f19601f820116820180604052508101906124e291906146bb565b90506000601173__$ce39e7eba0e8c210ce522c13d692fbaca1$__63732a2ccf9091846040518363ffffffff1660e01b8152600401612522929190614e42565b60006040518083038186803b15801561253a57600080fd5b505af415801561254e573d6000803e3d6000fd5b505050506040513d6000823e3d601f19601f820116820180604052508101906125779190614725565b90506125e161258583614244565b6040518060400160405280600181526020017f7c00000000000000000000000000000000000000000000000000000000000000815250836040518060200160405280600081525060405180602001604052806000815250614002565b84848151811061261a577f4e487b7100000000000000000000000000000000000000000000000000000000600052603260045260246000fd5b6020026020010181905250505080806126329061539d565b9150506123c3565b505b6040518060400160405280600a81526020017f77726974657175657565000000000000000000000000000000000000000000008152508051906020012083805190602001201415612a0257601573__$ce39e7eba0e8c210ce522c13d692fbaca1$__63deb3d89690916040518263ffffffff1660e01b81526004016126c19190614e27565b60206040518083038186803b1580156126d957600080fd5b505af41580156126ed573d6000803e3d6000fd5b505050506040513d601f19601f820116820180604052508101906127119190614839565b67ffffffffffffffff811115612750577f4e487b7100000000000000000000000000000000000000000000000000000000600052604160045260246000fd5b60405190808252806020026020018201604052801561278357816020015b606081526020019060019003908161276e5790505b50905060005b601573__$ce39e7eba0e8c210ce522c13d692fbaca1$__63deb3d89690916040518263ffffffff1660e01b81526004016127c39190614e27565b60206040518083038186803b1580156127db57600080fd5b505af41580156127ef573d6000803e3d6000fd5b505050506040513d601f19601f820116820180604052508101906128139190614839565b811015612a00576000601573__$ce39e7eba0e8c210ce522c13d692fbaca1$__63d1aa9e7e9091846040518363ffffffff1660e01b8152600401612858929190614ea9565b60206040518083038186803b15801561287057600080fd5b505af4158015612884573d6000803e3d6000fd5b505050506040513d601f19601f820116820180604052508101906128a891906146bb565b90506000601573__$ce39e7eba0e8c210ce522c13d692fbaca1$__63732a2ccf9091846040518363ffffffff1660e01b81526004016128e8929190614e42565b60006040518083038186803b15801561290057600080fd5b505af4158015612914573d6000803e3d6000fd5b505050506040513d6000823e3d601f19601f8201168201806040525081019061293d9190614725565b90506129a761294b83614244565b6040518060400160405280600181526020017f7c00000000000000000000000000000000000000000000000000000000000000815250836040518060200160405280600081525060405180602001604052806000815250614002565b8484815181106129e0577f4e487b7100000000000000000000000000000000000000000000000000000000600052603260045260246000fd5b6020026020010181905250505080806129f89061539d565b915050612789565b505b80915050919050565b612a13613ffa565b73ffffffffffffffffffffffffffffffffffffffff16612a31612a93565b73ffffffffffffffffffffffffffffffffffffffff1614612a87576040517f08c379a0000000000000000000000000000000000000000000000000000000008152600401612a7e90614d9d565b60405180910390fd5b612a916000614479565b565b60008060009054906101000a900473ffffffffffffffffffffffffffffffffffffffff16905090565b6060806040518060400160405280600681526020017f61636365737300000000000000000000000000000000000000000000000000008152508051906020012083805190602001201415612e1e57600173__$ce39e7eba0e8c210ce522c13d692fbaca1$__63deb3d89690916040518263ffffffff1660e01b8152600401612b449190614e27565b60206040518083038186803b158015612b5c57600080fd5b505af4158015612b70573d6000803e3d6000fd5b505050506040513d601f19601f82011682018060405250810190612b949190614839565b67ffffffffffffffff811115612bd3577f4e487b7100000000000000000000000000000000000000000000000000000000600052604160045260246000fd5b604051908082528060200260200182016040528015612c0657816020015b6060815260200190600190039081612bf15790505b50905060005b600173__$ce39e7eba0e8c210ce522c13d692fbaca1$__63deb3d89690916040518263ffffffff1660e01b8152600401612c469190614e27565b60206040518083038186803b158015612c5e57600080fd5b505af4158015612c72573d6000803e3d6000fd5b505050506040513d601f19601f82011682018060405250810190612c969190614839565b811015612e1c576000600173__$ce39e7eba0e8c210ce522c13d692fbaca1$__63d1aa9e7e9091846040518363ffffffff1660e01b8152600401612cdb929190614ea9565b60206040518083038186803b158015612cf357600080fd5b505af4158015612d07573d6000803e3d6000fd5b505050506040513d601f19601f82011682018060405250810190612d2b91906146bb565b90506000600173__$ce39e7eba0e8c210ce522c13d692fbaca1$__63732a2ccf9091846040518363ffffffff1660e01b8152600401612d6b929190614e42565b60006040518083038186803b158015612d8357600080fd5b505af4158015612d97573d6000803e3d6000fd5b505050506040513d6000823e3d601f19601f82011682018060405250810190612dc09190614725565b905080848481518110612dfc577f4e487b7100000000000000000000000000000000000000000000000000000000600052603260045260246000fd5b602002602001018190525050508080612e149061539d565b915050612c0c565b505b6040518060400160405280600881526020017f616e616c797a6572000000000000000000000000000000000000000000000000815250805190602001208380519060200120141561317d57600573__$ce39e7eba0e8c210ce522c13d692fbaca1$__63deb3d89690916040518263ffffffff1660e01b8152600401612ea39190614e27565b60206040518083038186803b158015612ebb57600080fd5b505af4158015612ecf573d6000803e3d6000fd5b505050506040513d601f19601f82011682018060405250810190612ef39190614839565b67ffffffffffffffff811115612f32577f4e487b7100000000000000000000000000000000000000000000000000000000600052604160045260246000fd5b604051908082528060200260200182016040528015612f6557816020015b6060815260200190600190039081612f505790505b50905060005b600573__$ce39e7eba0e8c210ce522c13d692fbaca1$__63deb3d89690916040518263ffffffff1660e01b8152600401612fa59190614e27565b60206040518083038186803b158015612fbd57600080fd5b505af4158015612fd1573d6000803e3d6000fd5b505050506040513d601f19601f82011682018060405250810190612ff59190614839565b81101561317b576000600573__$ce39e7eba0e8c210ce522c13d692fbaca1$__63d1aa9e7e9091846040518363ffffffff1660e01b815260040161303a929190614ea9565b60206040518083038186803b15801561305257600080fd5b505af4158015613066573d6000803e3d6000fd5b505050506040513d601f19601f8201168201806040525081019061308a91906146bb565b90506000600573__$ce39e7eba0e8c210ce522c13d692fbaca1$__63732a2ccf9091846040518363ffffffff1660e01b81526004016130ca929190614e42565b60006040518083038186803b1580156130e257600080fd5b505af41580156130f6573d6000803e3d6000fd5b505050506040513d6000823e3d601f19601f8201168201806040525081019061311f9190614725565b90508084848151811061315b577f4e487b7100000000000000000000000000000000000000000000000000000000600052603260045260246000fd5b6020026020010181905250505080806131739061539d565b915050612f6b565b505b6040518060400160405280600881526020017f677561726469616e00000000000000000000000000000000000000000000000081525080519060200120838051906020012014156134dc57600973__$ce39e7eba0e8c210ce522c13d692fbaca1$__63deb3d89690916040518263ffffffff1660e01b81526004016132029190614e27565b60206040518083038186803b15801561321a57600080fd5b505af415801561322e573d6000803e3d6000fd5b505050506040513d601f19601f820116820180604052508101906132529190614839565b67ffffffffffffffff811115613291577f4e487b7100000000000000000000000000000000000000000000000000000000600052604160045260246000fd5b6040519080825280602002602001820160405280156132c457816020015b60608152602001906001900390816132af5790505b50905060005b600973__$ce39e7eba0e8c210ce522c13d692fbaca1$__63deb3d89690916040518263ffffffff1660e01b81526004016133049190614e27565b60206040518083038186803b15801561331c57600080fd5b505af4158015613330573d6000803e3d6000fd5b505050506040513d601f19601f820116820180604052508101906133549190614839565b8110156134da576000600973__$ce39e7eba0e8c210ce522c13d692fbaca1$__63d1aa9e7e9091846040518363ffffffff1660e01b8152600401613399929190614ea9565b60206040518083038186803b1580156133b157600080fd5b505af41580156133c5573d6000803e3d6000fd5b505050506040513d601f19601f820116820180604052508101906133e991906146bb565b90506000600973__$ce39e7eba0e8c210ce522c13d692fbaca1$__63732a2ccf9091846040518363ffffffff1660e01b8152600401613429929190614e42565b60006040518083038186803b15801561344157600080fd5b505af4158015613455573d6000803e3d6000fd5b505050506040513d6000823e3d601f19601f8201168201806040525081019061347e9190614725565b9050808484815181106134ba577f4e487b7100000000000000000000000000000000000000000000000000000000600052603260045260246000fd5b6020026020010181905250505080806134d29061539d565b9150506132ca565b505b6040518060400160405280600981526020017f7265706c6963616e740000000000000000000000000000000000000000000000815250805190602001208380519060200120141561383b57600d73__$ce39e7eba0e8c210ce522c13d692fbaca1$__63deb3d89690916040518263ffffffff1660e01b81526004016135619190614e27565b60206040518083038186803b15801561357957600080fd5b505af415801561358d573d6000803e3d6000fd5b505050506040513d601f19601f820116820180604052508101906135b19190614839565b67ffffffffffffffff8111156135f0577f4e487b7100000000000000000000000000000000000000000000000000000000600052604160045260246000fd5b60405190808252806020026020018201604052801561362357816020015b606081526020019060019003908161360e5790505b50905060005b600d73__$ce39e7eba0e8c210ce522c13d692fbaca1$__63deb3d89690916040518263ffffffff1660e01b81526004016136639190614e27565b60206040518083038186803b15801561367b57600080fd5b505af415801561368f573d6000803e3d6000fd5b505050506040513d601f19601f820116820180604052508101906136b39190614839565b811015613839576000600d73__$ce39e7eba0e8c210ce522c13d692fbaca1$__63d1aa9e7e9091846040518363ffffffff1660e01b81526004016136f8929190614ea9565b60206040518083038186803b15801561371057600080fd5b505af4158015613724573d6000803e3d6000fd5b505050506040513d601f19601f8201168201806040525081019061374891906146bb565b90506000600d73__$ce39e7eba0e8c210ce522c13d692fbaca1$__63732a2ccf9091846040518363ffffffff1660e01b8152600401613788929190614e42565b60006040518083038186803b1580156137a057600080fd5b505af41580156137b4573d6000803e3d6000fd5b505050506040513d6000823e3d601f19601f820116820180604052508101906137dd9190614725565b905080848481518110613819577f4e487b7100000000000000000000000000000000000000000000000000000000600052603260045260246000fd5b6020026020010181905250505080806138319061539d565b915050613629565b505b6040518060400160405280600681526020017f77726974657200000000000000000000000000000000000000000000000000008152508051906020012083805190602001201415613b9a57601173__$ce39e7eba0e8c210ce522c13d692fbaca1$__63deb3d89690916040518263ffffffff1660e01b81526004016138c09190614e27565b60206040518083038186803b1580156138d857600080fd5b505af41580156138ec573d6000803e3d6000fd5b505050506040513d601f19601f820116820180604052508101906139109190614839565b67ffffffffffffffff81111561394f577f4e487b7100000000000000000000000000000000000000000000000000000000600052604160045260246000fd5b60405190808252806020026020018201604052801561398257816020015b606081526020019060019003908161396d5790505b50905060005b601173__$ce39e7eba0e8c210ce522c13d692fbaca1$__63deb3d89690916040518263ffffffff1660e01b81526004016139c29190614e27565b60206040518083038186803b1580156139da57600080fd5b505af41580156139ee573d6000803e3d6000fd5b505050506040513d601f19601f82011682018060405250810190613a129190614839565b811015613b98576000601173__$ce39e7eba0e8c210ce522c13d692fbaca1$__63d1aa9e7e9091846040518363ffffffff1660e01b8152600401613a57929190614ea9565b60206040518083038186803b158015613a6f57600080fd5b505af4158015613a83573d6000803e3d6000fd5b505050506040513d601f19601f82011682018060405250810190613aa791906146bb565b90506000601173__$ce39e7eba0e8c210ce522c13d692fbaca1$__63732a2ccf9091846040518363ffffffff1660e01b8152600401613ae7929190614e42565b60006040518083038186803b158015613aff57600080fd5b505af4158015613b13573d6000803e3d6000fd5b505050506040513d6000823e3d601f19601f82011682018060405250810190613b3c9190614725565b905080848481518110613b78577f4e487b7100000000000000000000000000000000000000000000000000000000600052603260045260246000fd5b602002602001018190525050508080613b909061539d565b915050613988565b505b6040518060400160405280600a81526020017f77726974657175657565000000000000000000000000000000000000000000008152508051906020012083805190602001201415613ef957601573__$ce39e7eba0e8c210ce522c13d692fbaca1$__63deb3d89690916040518263ffffffff1660e01b8152600401613c1f9190614e27565b60206040518083038186803b158015613c3757600080fd5b505af4158015613c4b573d6000803e3d6000fd5b505050506040513d601f19601f82011682018060405250810190613c6f9190614839565b67ffffffffffffffff811115613cae577f4e487b7100000000000000000000000000000000000000000000000000000000600052604160045260246000fd5b604051908082528060200260200182016040528015613ce157816020015b6060815260200190600190039081613ccc5790505b50905060005b601573__$ce39e7eba0e8c210ce522c13d692fbaca1$__63deb3d89690916040518263ffffffff1660e01b8152600401613d219190614e27565b60206040518083038186803b158015613d3957600080fd5b505af4158015613d4d573d6000803e3d6000fd5b505050506040513d601f19601f82011682018060405250810190613d719190614839565b811015613ef7576000601573__$ce39e7eba0e8c210ce522c13d692fbaca1$__63d1aa9e7e9091846040518363ffffffff1660e01b8152600401613db6929190614ea9565b60206040518083038186803b158015613dce57600080fd5b505af4158015613de2573d6000803e3d6000fd5b505050506040513d601f19601f82011682018060405250810190613e0691906146bb565b90506000601573__$ce39e7eba0e8c210ce522c13d692fbaca1$__63732a2ccf9091846040518363ffffffff1660e01b8152600401613e46929190614e42565b60006040518083038186803b158015613e5e57600080fd5b505af4158015613e72573d6000803e3d6000fd5b505050506040513d6000823e3d601f19601f82011682018060405250810190613e9b9190614725565b905080848481518110613ed7577f4e487b7100000000000000000000000000000000000000000000000000000000600052603260045260246000fd5b602002602001018190525050508080613eef9061539d565b915050613ce7565b505b80915050919050565b613f0a613ffa565b73ffffffffffffffffffffffffffffffffffffffff16613f28612a93565b73ffffffffffffffffffffffffffffffffffffffff1614613f7e576040517f08c379a0000000000000000000000000000000000000000000000000000000008152600401613f7590614d9d565b60405180910390fd5b600073ffffffffffffffffffffffffffffffffffffffff168173ffffffffffffffffffffffffffffffffffffffff161415613fee576040517f08c379a0000000000000000000000000000000000000000000000000000000008152600401613fe590614ca9565b60405180910390fd5b613ff781614479565b50565b600033905090565b6060858585858560405160200161401d959493929190614c21565b604051602081830303815290604052905095945050505050565b606060008490506000815167ffffffffffffffff811115614081577f4e487b7100000000000000000000000000000000000000000000000000000000600052604160045260246000fd5b6040519080825280601f01601f1916602001820160405280156140b35781602001600182028036833780820191505090505b50905060005b8251811015614237578281815181106140fb577f4e487b7100000000000000000000000000000000000000000000000000000000600052603260045260246000fd5b602001015160f81c60f81b82828151811061413f577f4e487b7100000000000000000000000000000000000000000000000000000000600052603260045260246000fd5b60200101907effffffffffffffffffffffffffffffffffffffffffffffffffffffffffffff1916908160001a9053508581141561422457846000815181106141b0577f4e487b7100000000000000000000000000000000000000000000000000000000600052603260045260246000fd5b602001015160f81c60f81b8282815181106141f4577f4e487b7100000000000000000000000000000000000000000000000000000000600052603260045260246000fd5b60200101907effffffffffffffffffffffffffffffffffffffffffffffffffffffffffffff1916908160001a9053505b808061422f9061539d565b9150506140b9565b5080925050509392505050565b60606000602867ffffffffffffffff811115614289577f4e487b7100000000000000000000000000000000000000000000000000000000600052604160045260246000fd5b6040519080825280601f01601f1916602001820160405280156142bb5781602001600182028036833780820191505090505b50905060005b601481101561446f5760008160136142d991906152aa565b60086142e59190615215565b60026142f191906150f7565b8573ffffffffffffffffffffffffffffffffffffffff166143129190615042565b60f81b9050600060108260f81c6143299190615073565b60f81b905060008160f81c6010614340919061526f565b8360f81c61434e91906152de565b60f81b905061435c8261453d565b8585600261436a9190615215565b815181106143a1577f4e487b7100000000000000000000000000000000000000000000000000000000600052603260045260246000fd5b60200101907effffffffffffffffffffffffffffffffffffffffffffffffffffffffffffff1916908160001a9053506143d98161453d565b8560018660026143e99190615215565b6143f39190614fb5565b8151811061442a577f4e487b7100000000000000000000000000000000000000000000000000000000600052603260045260246000fd5b60200101907effffffffffffffffffffffffffffffffffffffffffffffffffffffffffffff1916908160001a90535050505080806144679061539d565b9150506142c1565b5080915050919050565b60008060009054906101000a900473ffffffffffffffffffffffffffffffffffffffff169050816000806101000a81548173ffffffffffffffffffffffffffffffffffffffff021916908373ffffffffffffffffffffffffffffffffffffffff1602179055508173ffffffffffffffffffffffffffffffffffffffff168173ffffffffffffffffffffffffffffffffffffffff167f8be0079c531659141344cd1fd0a4f28419497f9722a3daafe3b4186f6b6457e060405160405180910390a35050565b6000600a8260f81c60ff1610156145685760308260f81c61455e919061500b565b60f81b905061457e565b60578260f81c614578919061500b565b60f81b90505b919050565b600061459661459184614f03565b614ed2565b9050828152602081018484840111156145ae57600080fd5b6145b984828561535b565b509392505050565b60006145d46145cf84614f03565b614ed2565b9050828152602081018484840111156145ec57600080fd5b6145f784828561536a565b509392505050565b60008135905061460e81615491565b92915050565b60008151905061462381615491565b92915050565b600082601f83011261463a57600080fd5b813561464a848260208601614583565b91505092915050565b600082601f83011261466457600080fd5b81516146748482602086016145c1565b91505092915050565b60008151905061468c816154a8565b92915050565b6000602082840312156146a457600080fd5b60006146b2848285016145ff565b91505092915050565b6000602082840312156146cd57600080fd5b60006146db84828501614614565b91505092915050565b6000602082840312156146f657600080fd5b600082013567ffffffffffffffff81111561471057600080fd5b61471c84828501614629565b91505092915050565b60006020828403121561473757600080fd5b600082015167ffffffffffffffff81111561475157600080fd5b61475d84828501614653565b91505092915050565b6000806040838503121561477957600080fd5b600083013567ffffffffffffffff81111561479357600080fd5b61479f85828601614629565b92505060206147b0858286016145ff565b9150509250929050565b6000806000606084860312156147cf57600080fd5b600084013567ffffffffffffffff8111156147e957600080fd5b6147f586828701614629565b9350506020614806868287016145ff565b925050604084013567ffffffffffffffff81111561482357600080fd5b61482f86828701614629565b9150509250925092565b60006020828403121561484b57600080fd5b60006148598482850161467d565b91505092915050565b600061486e8383614909565b905092915050565b61487f81615312565b82525050565b61488e81615312565b82525050565b600061489f82614f43565b6148a98185614f66565b9350836020820285016148bb85614f33565b8060005b858110156148f757848403895281516148d88582614862565b94506148e383614f59565b925060208a019950506001810190506148bf565b50829750879550505050505092915050565b600061491482614f4e565b61491e8185614f77565b935061492e81856020860161536a565b61493781615473565b840191505092915050565b600061494d82614f4e565b6149578185614f88565b935061496781856020860161536a565b61497081615473565b840191505092915050565b600061498682614f4e565b6149908185614f99565b93506149a081856020860161536a565b6149a981615473565b840191505092915050565b60006149bf82614f4e565b6149c98185614faa565b93506149d981856020860161536a565b80840191505092915050565b60006149f2602683614f88565b91507f4f776e61626c653a206e6577206f776e657220697320746865207a65726f206160008301527f64647265737300000000000000000000000000000000000000000000000000006020830152604082019050919050565b6000614a58600783614f88565b91507f77726974657273000000000000000000000000000000000000000000000000006000830152602082019050919050565b6000614a98600883614f88565b91507f616e616c797a65720000000000000000000000000000000000000000000000006000830152602082019050919050565b6000614ad8600683614f88565b91507f61636365737300000000000000000000000000000000000000000000000000006000830152602082019050919050565b6000614b18600883614f88565b91507f677561726469616e0000000000000000000000000000000000000000000000006000830152602082019050919050565b6000614b58602083614f88565b91507f4f776e61626c653a2063616c6c6572206973206e6f7420746865206f776e65726000830152602082019050919050565b6000614b98600a83614f88565b91507f77726974657175657565000000000000000000000000000000000000000000006000830152602082019050919050565b6000614bd8600983614f88565b91507f7265706c6963616e7400000000000000000000000000000000000000000000006000830152602082019050919050565b8082525050565b614c1b81615344565b82525050565b6000614c2d82886149b4565b9150614c3982876149b4565b9150614c4582866149b4565b9150614c5182856149b4565b9150614c5d82846149b4565b91508190509695505050505050565b6000602082019050614c816000830184614876565b92915050565b60006020820190508181036000830152614ca18184614894565b905092915050565b60006020820190508181036000830152614cc2816149e5565b9050919050565b60006040820190508181036000830152614ce281614a4b565b90508181036020830152614cf68184614942565b905092915050565b60006040820190508181036000830152614d1781614a8b565b90508181036020830152614d2b8184614942565b905092915050565b60006040820190508181036000830152614d4c81614acb565b90508181036020830152614d608184614942565b905092915050565b60006040820190508181036000830152614d8181614b0b565b90508181036020830152614d958184614942565b905092915050565b60006020820190508181036000830152614db681614b4b565b9050919050565b60006040820190508181036000830152614dd681614b8b565b90508181036020830152614dea8184614942565b905092915050565b60006040820190508181036000830152614e0b81614bcb565b90508181036020830152614e1f8184614942565b905092915050565b6000602082019050614e3c6000830184614c0b565b92915050565b6000604082019050614e576000830185614c0b565b614e646020830184614885565b9392505050565b6000606082019050614e806000830186614c0b565b614e8d6020830185614885565b8181036040830152614e9f818461497b565b9050949350505050565b6000604082019050614ebe6000830185614c0b565b614ecb6020830184614c12565b9392505050565b6000604051905081810181811067ffffffffffffffff82111715614ef957614ef8615444565b5b8060405250919050565b600067ffffffffffffffff821115614f1e57614f1d615444565b5b601f19601f8301169050602081019050919050565b6000819050602082019050919050565b600081519050919050565b600081519050919050565b6000602082019050919050565b600082825260208201905092915050565b600082825260208201905092915050565b600082825260208201905092915050565b600082825260208201905092915050565b600081905092915050565b6000614fc082615344565b9150614fcb83615344565b9250827fffffffffffffffffffffffffffffffffffffffffffffffffffffffffffffffff0382111561500057614fff6153e6565b5b828201905092915050565b60006150168261534e565b91506150218361534e565b92508260ff03821115615037576150366153e6565b5b828201905092915050565b600061504d82615344565b915061505883615344565b92508261506857615067615415565b5b828204905092915050565b600061507e8261534e565b91506150898361534e565b92508261509957615098615415565b5b828204905092915050565b6000808291508390505b60018511156150ee578086048111156150ca576150c96153e6565b5b60018516156150d95780820291505b80810290506150e785615484565b94506150ae565b94509492505050565b600061510282615344565b915061510d83615344565b925061513a7fffffffffffffffffffffffffffffffffffffffffffffffffffffffffffffffff8484615142565b905092915050565b600082615152576001905061520e565b81615160576000905061520e565b81600181146151765760028114615180576151af565b600191505061520e565b60ff841115615192576151916153e6565b5b8360020a9150848211156151a9576151a86153e6565b5b5061520e565b5060208310610133831016604e8410600b84101617156151e45782820a9050838111156151df576151de6153e6565b5b61520e565b6151f184848460016150a4565b92509050818404811115615208576152076153e6565b5b81810290505b9392505050565b600061522082615344565b915061522b83615344565b9250817fffffffffffffffffffffffffffffffffffffffffffffffffffffffffffffffff0483118215151615615264576152636153e6565b5b828202905092915050565b600061527a8261534e565b91506152858361534e565b92508160ff048311821515161561529f5761529e6153e6565b5b828202905092915050565b60006152b582615344565b91506152c083615344565b9250828210156152d3576152d26153e6565b5b828203905092915050565b60006152e98261534e565b91506152f48361534e565b925082821015615307576153066153e6565b5b828203905092915050565b600061531d82615324565b9050919050565b600073ffffffffffffffffffffffffffffffffffffffff82169050919050565b6000819050919050565b600060ff82169050919050565b82818337600083830152505050565b60005b8381101561538857808201518184015260208101905061536d565b83811115615397576000848401525b50505050565b60006153a882615344565b91507fffffffffffffffffffffffffffffffffffffffffffffffffffffffffffffffff8214156153db576153da6153e6565b5b600182019050919050565b7f4e487b7100000000000000000000000000000000000000000000000000000000600052601160045260246000fd5b7f4e487b7100000000000000000000000000000000000000000000000000000000600052601260045260246000fd5b7f4e487b7100000000000000000000000000000000000000000000000000000000600052604160045260246000fd5b6000601f19601f8301169050919050565b60008160011c9050919050565b61549a81615312565b81146154a557600080fd5b50565b6154b181615344565b81146154bc57600080fd5b5056fea264697066735822122093277c6c5651956ac3e9f10d4704d45129a92cf524fc754ce28ad5425dfed0d464736f6c63430008000033",
  "linkReferences": {
    "contracts/IterableMapping.sol": {
      "IterableMapping": [
        {
          "length": 20,
          "start": 982
        },
        {
          "length": 20,
          "start": 1223
        },
        {
          "length": 20,
          "start": 1464
        },
        {
          "length": 20,
          "start": 1705
        },
        {
          "length": 20,
          "start": 1946
        },
        {
          "length": 20,
          "start": 2187
        },
        {
          "length": 20,
          "start": 2560
        },
        {
          "length": 20,
          "start": 2774
        },
        {
          "length": 20,
          "start": 3018
        },
        {
          "length": 20,
          "start": 3232
        },
        {
          "length": 20,
          "start": 3476
        },
        {
          "length": 20,
          "start": 3690
        },
        {
          "length": 20,
          "start": 3934
        },
        {
          "length": 20,
          "start": 4148
        },
        {
          "length": 20,
          "start": 4392
        },
        {
          "length": 20,
          "start": 4606
        },
        {
          "length": 20,
          "start": 4850
        },
        {
          "length": 20,
          "start": 5064
        },
        {
          "length": 20,
          "start": 5313
        },
        {
          "length": 20,
          "start": 5571
        },
        {
          "length": 20,
          "start": 5718
        },
        {
          "length": 20,
          "start": 5862
        },
        {
          "length": 20,
          "start": 6279
        },
        {
          "length": 20,
          "start": 6537
        },
        {
          "length": 20,
          "start": 6684
        },
        {
          "length": 20,
          "start": 6828
        },
        {
          "length": 20,
          "start": 7245
        },
        {
          "length": 20,
          "start": 7503
        },
        {
          "length": 20,
          "start": 7650
        },
        {
          "length": 20,
          "start": 7794
        },
        {
          "length": 20,
          "start": 8211
        },
        {
          "length": 20,
          "start": 8469
        },
        {
          "length": 20,
          "start": 8616
        },
        {
          "length": 20,
          "start": 8760
        },
        {
          "length": 20,
          "start": 9177
        },
        {
          "length": 20,
          "start": 9435
        },
        {
          "length": 20,
          "start": 9582
        },
        {
          "length": 20,
          "start": 9726
        },
        {
          "length": 20,
          "start": 10143
        },
        {
          "length": 20,
          "start": 10401
        },
        {
          "length": 20,
          "start": 10548
        },
        {
          "length": 20,
          "start": 10692
        },
        {
          "length": 20,
          "start": 11298
        },
        {
          "length": 20,
          "start": 11556
        },
        {
          "length": 20,
          "start": 11703
        },
        {
          "length": 20,
          "start": 11847
        },
        {
          "length": 20,
          "start": 12161
        },
        {
          "length": 20,
          "start": 12419
        },
        {
          "length": 20,
          "start": 12566
        },
        {
          "length": 20,
          "start": 12710
        },
        {
          "length": 20,
          "start": 13024
        },
        {
          "length": 20,
          "start": 13282
        },
        {
          "length": 20,
          "start": 13429
        },
        {
          "length": 20,
          "start": 13573
        },
        {
          "length": 20,
          "start": 13887
        },
        {
          "length": 20,
          "start": 14145
        },
        {
          "length": 20,
          "start": 14292
        },
        {
          "length": 20,
          "start": 14436
        },
        {
          "length": 20,
          "start": 14750
        },
        {
          "length": 20,
          "start": 15008
        },
        {
          "length": 20,
          "start": 15155
        },
        {
          "length": 20,
          "start": 15299
        },
        {
          "length": 20,
          "start": 15613
        },
        {
          "length": 20,
          "start": 15871
        },
        {
          "length": 20,
          "start": 16018
        },
        {
          "length": 20,
          "start": 16162
        }
      ]
    }
  },
  "deployedLinkReferences": {
    "contracts/IterableMapping.sol": {
      "IterableMapping": [
        {
          "length": 20,
          "start": 706
        },
        {
          "length": 20,
          "start": 947
        },
        {
          "length": 20,
          "start": 1188
        },
        {
          "length": 20,
          "start": 1429
        },
        {
          "length": 20,
          "start": 1670
        },
        {
          "length": 20,
          "start": 1911
        },
        {
          "length": 20,
          "start": 2284
        },
        {
          "length": 20,
          "start": 2498
        },
        {
          "length": 20,
          "start": 2742
        },
        {
          "length": 20,
          "start": 2956
        },
        {
          "length": 20,
          "start": 3200
        },
        {
          "length": 20,
          "start": 3414
        },
        {
          "length": 20,
          "start": 3658
        },
        {
          "length": 20,
          "start": 3872
        },
        {
          "length": 20,
          "start": 4116
        },
        {
          "length": 20,
          "start": 4330
        },
        {
          "length": 20,
          "start": 4574
        },
        {
          "length": 20,
          "start": 4788
        },
        {
          "length": 20,
          "start": 5037
        },
        {
          "length": 20,
          "start": 5295
        },
        {
          "length": 20,
          "start": 5442
        },
        {
          "length": 20,
          "start": 5586
        },
        {
          "length": 20,
          "start": 6003
        },
        {
          "length": 20,
          "start": 6261
        },
        {
          "length": 20,
          "start": 6408
        },
        {
          "length": 20,
          "start": 6552
        },
        {
          "length": 20,
          "start": 6969
        },
        {
          "length": 20,
          "start": 7227
        },
        {
          "length": 20,
          "start": 7374
        },
        {
          "length": 20,
          "start": 7518
        },
        {
          "length": 20,
          "start": 7935
        },
        {
          "length": 20,
          "start": 8193
        },
        {
          "length": 20,
          "start": 8340
        },
        {
          "length": 20,
          "start": 8484
        },
        {
          "length": 20,
          "start": 8901
        },
        {
          "length": 20,
          "start": 9159
        },
        {
          "length": 20,
          "start": 9306
        },
        {
          "length": 20,
          "start": 9450
        },
        {
          "length": 20,
          "start": 9867
        },
        {
          "length": 20,
          "start": 10125
        },
        {
          "length": 20,
          "start": 10272
        },
        {
          "length": 20,
          "start": 10416
        },
        {
          "length": 20,
          "start": 11022
        },
        {
          "length": 20,
          "start": 11280
        },
        {
          "length": 20,
          "start": 11427
        },
        {
          "length": 20,
          "start": 11571
        },
        {
          "length": 20,
          "start": 11885
        },
        {
          "length": 20,
          "start": 12143
        },
        {
          "length": 20,
          "start": 12290
        },
        {
          "length": 20,
          "start": 12434
        },
        {
          "length": 20,
          "start": 12748
        },
        {
          "length": 20,
          "start": 13006
        },
        {
          "length": 20,
          "start": 13153
        },
        {
          "length": 20,
          "start": 13297
        },
        {
          "length": 20,
          "start": 13611
        },
        {
          "length": 20,
          "start": 13869
        },
        {
          "length": 20,
          "start": 14016
        },
        {
          "length": 20,
          "start": 14160
        },
        {
          "length": 20,
          "start": 14474
        },
        {
          "length": 20,
          "start": 14732
        },
        {
          "length": 20,
          "start": 14879
        },
        {
          "length": 20,
          "start": 15023
        },
        {
          "length": 20,
          "start": 15337
        },
        {
          "length": 20,
          "start": 15595
        },
        {
          "length": 20,
          "start": 15742
        },
        {
          "length": 20,
          "start": 15886
        }
      ]
    }
  }
}